:020000040800F2
:100000008012002099010008490200084B020008F4
:100010004F020008530200085702000800000000C9
:100020000000000000000000000000005B0200086B
:100030005D02000800000000B337000899030008C3
:10004000AF010008AF010008AF010008AF010008D0
:10005000AF010008AF010008AF010008AF010008C0
:10006000AF010008AF010008AF010008AF010008B0
:10007000AF010008AF010008AF010008AF010008A0
:10008000AF010008AF010008AF010008AF01000890
:10009000AF010008AF010008AF010008AF01000880
:1000A000AF010008AF010008AF010008AF01000870
:1000B000AF010008AF010008AF010008AF01000860
:1000C000AF010008AF010008AF010008AF01000850
:1000D000AF010008D5140008E5150008AF010008BD
:1000E000AF010008AF010008AF01000800F002F8FE
:1000F00000F042F80AA090E8000C82448344AAF180
:100100000107DA4501D100F037F8AFF2090EBAE87D
:100110000F0013F0010F18BFFB1A43F0010318473B
:10012000184A0000384A0000103A24BF78C878C145
:10013000FAD8520724BF30C830C144BF04680C60ED
:10014000704700000023002400250026103A28BF35
:1001500078C1FBD8520728BF30C148BF0B60704739
:10016000642903F0CF87782904F0088000207047C5
:100170001FB51FBD10B510BD04F008FA1146FFF7FA
:10018000F7FF00F03DF804F026FA03B4FFF7F2FFA2
:1001900003BC04F02BFA000008480047FEE7FEE726
:1001A000FEE7FEE7FEE7FEE7FEE7FEE7FEE7FEE727
:1001B00003480449024A044B70470000ED00000860
:1001C00080100020801200208010002070B50446AE
:1001D000002500BF03F0C6FA05460723154A002193
:1001E000154802F040FE0623144A0021144802F08C
:1001F0003AFE0A2003F0BBF8284603F0B7FA70BDB8
:1002000010B500F04BF900F05AF9482000F0CCF896
:1002100001F026F901F05FFB0A230A4A0021AFF240
:10022000530002F020FE01F07BFC012010BD70475E
:10023000704700000C030020193800080C0400204F
:10024000433800080C020020704700BFFEE700BFE3
:10025000FEE700BFFEE700BFFEE770477047000003
:100260000CB50020019000904748006840F48030B1
:100270004549086000BF4448006800F40030009021
:100280000198401C0190009818B90198B0F5A06F32
:10029000F1D13D48006810F4003F02D001200090E9
:1002A00001E0002000900098012843D13748006801
:1002B00040F01000354908600846006820F003004F
:1002C00008600846006840F0020008602E48406858
:1002D0002D4948600846406848600846406840F438
:1002E000806048600846406820F47C1048600846FA
:1002F000406840F4E81048600846006840F08070AC
:10030000086000BF2048006810F0007FFAD01E4847
:10031000406820F003001C4948600846406840F0EF
:100320000200486000BF1848406800F00C00082830
:10033000F9D101E000BFFEE70CBD10B5FFF790FF5B
:1003400010BD10B51048006840F001000E4908606B
:10035000084640680E4908400B4948600846006856
:100360000C490840084908600846006820F48020CD
:1003700008600846406820F4FE004860002088605D
:10038000FFF7DBFF10BD000000100240002002401C
:100390000000FFF8FFFFF6FE10B501F0B2FA01F021
:1003A000F6FB01F0C9FA10BD10B54FF0E02212695A
:1003B00022F004024FF0E0231A61C31700EB5373DD
:1003C000C3F3C703324C2370C31700EB5373D91028
:1003D00041F28832514305222E4B1A804FF0E02221
:1003E000126942F002024FF0E0231A611A4651618D
:1003F000126942F001021A6110BD2DE9F04707466B
:1004000000264FF0E020D0F814902148007807FB38
:1004100000F800BF01F0C8FA4FF0E020856911E054
:100420004FF0E0208469AC420CD0AC4202D2281BD1
:10043000064403E0A9EB040028440644254646454B
:1004400000D300E0ECE700BF01F0F3FABDE8F0876D
:1004500070B5044610480078012811D10D48008875
:10046000844206DB0B48008894FBF0F5284603F035
:1004700045F80848008894FBF0F100FB114084B275
:100480004FF47A7104FB01F0FFF7B7FF70BD000075
:1004900000000020020000204600002010B5FFF7F9
:1004A00050FF0121104800F09CFB012144F23C0068
:1004B00000F08AFB01210D4800F0BFF910BD08B51E
:1004C0004FF4E06000F014F826208DF800000020C2
:1004D0008DF801008DF8020001208DF803006846B8
:1004E00000F00BF808BD000003000200000230001D
:1004F00031490143314A1160704770B50021002332
:100500000F22C4780CB32D4C246804F4E064C4F5C5
:10051000E064210AC1F10403CA40447804FA03F1FB
:100520008478144021430901254C0678A1550478AC
:1005300004F01F050124AC4005786D114FF0E02652
:1005400006EB8505C5F8004109E0047804F01F05B5
:100550000124AC401B4D0678761145F8264070BD4D
:10056000194A0A400243154B1B1F1A60704739B1E4
:10057000124A121D12680243104B1B1D1A6006E03E
:100580000E4A121D126882430C4B1B1D1A607047E5
:10059000042808D14FF0E021096941F004014FF02F
:1005A000E022116107E04FF0E021096921F0040128
:1005B0004FF0E022116170470000FA050CED00E0F9
:1005C00000E400E080E100E080FFFF1F10B504467A
:1005D000C549601A8C422FD009DCC448201810D0BD
:1005E000B0F5806F16D0B0F5006F4AD11BE0B0F5C2
:1005F000806F2AD0B0F5006F30D0B0F5406F40D199
:1006000035E00121042000F0F9FA0021042000F077
:10061000F5FA37E00121082000F0F0FA0021082067
:1006200000F0ECFA2EE00121102000F0E7FA0021A2
:10063000102000F0E3FA25E00121202000F0DEFA8E
:100640000021202000F0DAFA1CE00121402000F017
:10065000D5FA0021402000F0D1FA13E001218020DA
:1006600000F0CCFA0021802000F0C8FA0AE0012155
:10067000080200F0C3FA00214FF4807000F0BEFAC7
:1006800000E000BF00BF10BD10B50121084600F01A
:10069000B5FA0021012000F0B1FA10BD2DE9F041BA
:1006A000024600250026002000230024002791F8A0
:1006B00003C00CF00F0591F803C01CF0100F03D01D
:1006C00091F802C04CEA050591F800C0BCF1000F9A
:1006D00031D0146800202BE04FF0010C0CFA00F32D
:1006E000B1F800C00CEA03069E4220D183004FF00F
:1006F0000F0C0CFA03F7BC4305FA03FC4CEA0404A4
:1007000091F803C0BCF1280F06D14FF0010C0CFA90
:1007100000FCC2F814C00AE091F803C0BCF1480F15
:1007200005D14FF0010C0CFA00FCC2F810C0401CBF
:100730000828D1D31460B1F800C0BCF1FF0F34DD3C
:10074000546800202EE000F1080C4FF0010808FA70
:100750000CF3B1F800C00CEA03069E4221D18300DD
:100760004FF00F0C0CFA03F7BC4305FA03FC4CEAFC
:10077000040491F803C0BCF1280F05D100F1080C66
:1007800008FA0CF8C2F8148091F803C0BCF1480FC5
:1007900007D100F1080C4FF0010808FA0CF8C2F874
:1007A0001080401C0828CED35460BDE8F0814FF67D
:1007B000FF710180022181700421C17070470246DF
:1007C000002093680B4201D0012000E00020704718
:1007D0000146886880B2704702460020D3680B4209
:1007E00001D0012000E0002070470146C86880B2B7
:1007F000704701617047416170470AB1016100E0D3
:1008000041617047C16070474FF480320A43826192
:100810008161826182698269704702460020344B9F
:1008200018684FF68073184040EA02100843304BB6
:10083000186070472F49C8617047F0B50A46002319
:100840000024002100252A4E7168C0F3034583B2BD
:1008500000F44016B6F5401F08D121F07061244E17
:10086000766826F07066224F7E6012E000F48016F3
:10087000B6F5801F06D1032606FA05F4A14341F020
:10088000706106E0460D360103FA06F6B14341F009
:10089000706122B1460D360103FA06F63143144E5B
:1008A0007160F0BD30B500228B071C0F0F2303FAD7
:1008B00004F20F4B08338C1053F8243093430C4C44
:1008C00008348D1044F8253023468C1053F824301A
:1008D0008C07240F00FA04F42343054C08348D10D0
:1008E00044F8253030BD00000014014000F8FEBF80
:1008F0000000014000002042DC48006840F0010098
:10090000DA49086008464068D9490840D749486034
:1009100008460068D7490840D4490860084600687E
:1009200020F4802008600846406820F4FE004860FB
:10093000002088607047CD49096821F48031CB4A96
:1009400011601146096821F480211160B0F5803FE3
:1009500003D0B0F5802F0ED106E0C449096841F4F8
:100960008031C24A116007E0C049096841F4A02102
:10097000BE4A116000E000BF00BF704710B50146DD
:100980000022002300204A11012A02D1B74C23681B
:1009900006E0022A02D1B54C236A01E0B34C636A37
:1009A00001F01F02012494401C4201D0012000E00C
:1009B000002010BD38B5002000900024002500BFA5
:1009C0003120FFF7DBFF05460098401C00901DB961
:1009D0000098B0F5A06FF3D13120FFF7CFFF08B139
:1009E000012400E00024204638BD014600209F4A33
:1009F000106820F0F80040EAC100106070479E497E
:100A00000860704702460020984B586820F47C101C
:100A100042EA01031843954B5860704796490866AF
:100A2000704701460020914A506820F003000843B7
:100A3000506070478D48406800F00C0070470146D8
:100A400000208A4A506820F0F00008435060704748
:100A500001460020854A506820F4E0600843506059
:100A6000704701460020814A506820F4605040EAF7
:100A7000C1005060704729B17C4A527A02437B4BD7
:100A80005A7204E0794A527A8243784B5A7270471C
:100A90007A490860704701460020744A506820F483
:100AA00040400843506070470021754A11706F4AFA
:100AB00082F82010012802D0042808D103E0012187
:100AC0006F4A117004E005216D4A117000E000BF0B
:100AD00000BF70476B49086070476449096A014369
:100AE000624A11627047674944390860704730B5FF
:100AF00000210022002400235C4D6D6805F00C01EC
:100B000021B1042905D0082923D105E05E4D0560F7
:100B100022E05D4D05601FE0544D6D6805F47012D4
:100B2000022505EB9242514D6D6805F480341CB9E5
:100B3000564D554305600BE04C4D6D6815F4003F74
:100B400003D0524D5543056002E04F4D55430560BB
:100B500002E04D4D056000BF00BF444D6D6805F0DB
:100B6000F00109094A4D6B5C0568DD4045603F4D69
:100B70006D6805F4E061090A454D6B5C4568DD4030
:100B800085603A4D6D6805F46051C90A404D6B5C53
:100B90004568DD40C560354D6D6805F44041890B01
:100BA0003C4D6B5CC568B5FBF3F5056130BD29B103
:100BB0002E4A526902432D4B5A6104E02B4A526976
:100BC00082432A4B5A61704729B1284A92690243ED
:100BD000264B9A6104E0254A92698243234B9A612D
:100BE000704729B1214AD2690243204BDA6104E0FF
:100BF0001E4AD26982431D4BDA61704729B11B4AF4
:100C0000D2680243194BDA6004E0184AD268824382
:100C1000164BDA60704729B1144A12690243134B2C
:100C20001A6104E0114A12698243104B1A6170473D
:100C300014494039086070470F49C86470470B4930
:100C4000C87170470948406A40F08070074948629F
:100C5000704701460020054A92680A4201D00120EF
:100C600000E0002070470149887270470010024080
:100C70000000FFF8FFFFF6FE00004242D8004242AB
:100C8000201002408004424200127A0000093D0018
:100C9000040000201400002010B50446D749601A53
:100CA0008C422BD006DCD648201813D0B0F5806FCC
:100CB00038D119E0B0F5806F2AD0B0F56C4F31D142
:100CC00001218803FFF79AFF00214FF48040FFF7CE
:100CD00095FF28E001214804FFF79DFF00214FF414
:100CE0000030FFF798FF1EE001218804FFF793FF13
:100CF00000214FF48020FFF78EFF14E00121C8048B
:100D0000FFF789FF00214FF40020FFF784FF0AE07E
:100D100001210805FFF77FFF00214FF48010FFF746
:100D20007AFF00E000BF00BF10BD2DE9F04786B09C
:100D300005460E460024A24600BF00BF00272F46EE
:100D40002C8A4CF6FF700440F08804432C82AC8956
:100D50004EF6F3100440B088318908437189084386
:100D60000443AC81AC8A4FF6FF400440B089044391
:100D7000AC8201A8FFF7BBFEA248874202D1DDF892
:100D800010A001E0DDF80CA00AEBCA0000EB0A108D
:100D900031688900B0FBF1F86420B8FBF0F0040181
:100DA0002009642101FB1089322000EB0910B0FBFF
:100DB000F1F000F00F0004432C8106B0BDE8F0878D
:100DC0004FF4E131016000218180C18001810C215B
:100DD000418100218181704710B502460020108AB0
:100DE0004FF2FF0318400B884C8823438C88234321
:100DF000CC8823431843108210BD0021018041801C
:100E00008180C180704721B1828942F40052828181
:100E100004E082894DF6FF731A4082817047F0B575
:100E2000034600240026002500201846C1F3421482
:100E300001F01F06012707FA06F5012C01D10C303D
:100E400004E0022C01D1103000E014301AB1076820
:100E50002F43076002E00768AF430760F0BD1AB197
:100E6000838A0B43838202E0838A8B4383827047A9
:100E7000028A4FF6F0731A400282028A0A43028203
:100E8000704782894FF2FF731A40828182890A4338
:100E90008281704721B1828942F00202828104E09E
:100EA00082894FF6FD731A4082817047028A4FF69D
:100EB000DF731A400282028A0A430282704721B11C
:100EC000028A42F48042028204E0028A4BF6FF73F7
:100ED0001A4002827047C1F30802828070470146BF
:100EE0008888C0F308007047818941F00101818141
:100EF0007047028BD2B20283028B42EA0122028344
:100F00007047028B02F47F420283028B0A43028302
:100F1000704721B1828A42F02002828204E0828AF4
:100F20004FF6DF731A408282704721B1828A42F005
:100F30001002828204E0828A4FF6EF731A408282A6
:100F4000704721B1828A42F00802828204E0828ADC
:100F50004FF6F7731A4082827047828A4FF6FB730E
:100F60001A408282828A0A438282704721B1828A31
:100F700042F00202828204E0828A4FF6FD731A4038
:100F8000828270470246002013880B4201D0012064
:100F900000E000207047CA430280704770B50246E7
:100FA0000B460024002100250020C3F3421503F066
:100FB0001F01012606FA01F1012D02D19689314067
:100FC00006E0022D02D1168A314001E0968A3140B6
:100FD0001C12012606FA04F41688344011B10CB133
:100FE000012000E0002070BD10B5002200230A128D
:100FF00001249440A3B2DC43048010BD004C0040A7
:1010000000BCFFBF0038014010B50024012291024E
:10101000A948FFF7F2FB1E20FFF7EFF900224FF47B
:101020008061A548FFF7E9FB4FF4FA70FFF7E5F997
:1010300001229102A048FFF7E0FB2820FFF7DDF92D
:101040004FF480619C48FFF7BAFB4FF4FA70FFF74A
:10105000D4F9012291029848FFF7CFFB204610BD3A
:1010600070B50024012291029348FFF7C6FB0520CA
:10107000FFF7C3F9012526E000224FF480618E4876
:10108000FFF7BBFB0520FFF7B8F9641001229102BE
:101090008948FFF7B2FB0520FFF7AFF94FF48061F5
:1010A0008548FFF78CFB10B144F0800401E004F0A8
:1010B0007F044120FFF7A1F9012291027E48FFF74A
:1010C0009CFB681CC5B2082DD6DD204670BD70B5EE
:1010D0000446012529E004F0010600224FF4806156
:1010E0007548FFF78AFB0520FFF787F9204604EBD8
:1010F000D071C1F347042EB1012291026E48FFF76F
:101100007CFB05E000224FF480616B48FFF775FB24
:101110004120FFF772F9012291026748FFF76DFB4A
:101120000220FFF76AF9681CC5B2082DD3DD19202B
:10113000FFF763F970BD08B54FF48060ADF80000AB
:1011400014208DF8030003208DF8020069465A48E8
:10115000FFF7A4FA012008BD2DE9FF4704468A469F
:10116000BAF10B0F03D0002004B0BDE8F087572080
:1011700004F8010B442004F8010B3A2004F8010B99
:10118000FFF742FFCC20FFF7A2FF4420FFF79FFFAD
:101190000A20FFF75DF9FFF737FFCC20FFF797FF35
:1011A000BE20FFF794FFFFF75BFF0646FFF758FFEF
:1011B000804606F00F093046F11706EB1171091150
:1011C00001EB0811CFB2642097FBF0F0C5B205F136
:1011D0003000C5B204F8015B642097FBF0F100FB1E
:1011E00011700A2190FBF1F0C5B205F13000C5B2D3
:1011F00004F8015B0A2097FBF0F100FB1170C5B207
:1012000005F13000C5B204F8015B2E2004F8010B93
:10121000484603F026FA0022284BCDE9000103F0EE
:1012200033FACDE9020103F0EFF900F0FF09642081
:1012300099FBF0F0C5B205F13000C5B204F8015BCE
:10124000642099FBF0F100FB11900A2190FBF1F072
:10125000C5B205F13000C5B204F8015B0A2004F8FC
:10126000010B002004F8010B01207DE770B5FFF7AA
:10127000CBFECC20FFF72BFF4420FFF728FF0A20EE
:10128000FFF7E6F8FFF7C0FECC20FFF720FFBE20F7
:10129000FFF71DFFFFF7E4FE0546FFF7E1FE0646F8
:1012A00000BF00BF3446200204B22C4304EB84008C
:1012B00040F3DB0070BD0000000C014000404F40D7
:1012C00038B504465348007808B1002038BD0120E5
:1012D000504908703320ADF8000003208DF802005B
:1012E00010208DF8030069464B48FFF7D7F901201D
:1012F000ECE710B5044634B1012C0AD0022C0ED014
:10130000032C18D111E0012211464348FFF775FA6A
:1013100012E0012202214048FFF76FFA0CE001229F
:1013200010213D48FFF769FA06E0012220213A48E2
:10133000FFF763FA00E000BF00BF012010BD10B549
:10134000044634B1012C0AD0022C0ED0032C18D143
:1013500011E0002201213048FFF74FFA12E000228D
:1013600002212D48FFF749FA0CE0002210212A48FB
:10137000FFF743FA06E0002220212748FFF73DFA55
:1013800000E000BF00BF012010BD70B504460D464F
:10139000164622A000F0A7F8002C36DB032C34DA26
:1013A000CDB922A000F09FF824B1012C06D0022C68
:1013B0000FD107E00020FFF79CFF0BE00120FFF7B3
:1013C00098FF07E00220FFF794FF0320FFF791FF4B
:1013D00000E000BF19E019A000F085F824B1012C4D
:1013E00006D0022C0FD107E00020FFF7A8FF0BE08A
:1013F0000120FFF7A4FF07E00220FFF7A0FF032072
:10140000FFF79DFF00E000BF00BF10A000F06BF8E9
:1014100070BD000018000020000801406F70657268
:101420006174696E672E2E2E00000000747970655D
:10143000203D3D20636C6F73650D0A007479706503
:10144000203D3D206F70656E0D0A00006F70657263
:1014500061746564202A444F4E452A0D0A0000003D
:1014600000B585B04FF40070ADF8000018208DF87D
:10147000030003208DF8020069462548FFF70EF9A6
:101480004FF48060ADF8000004208DF803000320C5
:101490008DF8020069461E48FFF700F901A8FFF722
:1014A0008FFC4FF4165001900020ADF80800ADF805
:1014B0000A00ADF80C00ADF810000C20ADF80E00DD
:1014C00001A91448FFF731FC01211248FFF79BFCEA
:1014D00005B000BD10B50F48FFF701FD044610BD73
:1014E00001460120704710B504460BE014F8011BBB
:1014F0000848FFF7F0FC00BF80210648FFF742FDD7
:101500000028F9D020780028F0D1012010BD00007B
:10151000000801400038014000B585B00420ADF856
:10152000000018208DF8030003208DF802006946A2
:101530005048FFF7B3F80820ADF8000004208DF8FC
:10154000030003208DF8020069464A48FFF7A6F819
:1015500001A8FFF735FC4FF4165001900020ADF8BC
:101560000800ADF80A00ADF80C00ADF810000C2032
:10157000ADF80E0001A94048FFF7D7FB012240F269
:1015800025513D48FFF74BFC01213B48FFF73BFC51
:1015900005B000BD70B504460D466DB13748006812
:1015A00000281EDD3548008881B2354802F03EFC37
:1015B00000203249086014E0304801680068401C8F
:1015C0002E4A10602E48445410460068802808D3E4
:1015D0001046008881B22A4802F028FC00202749E2
:1015E000086070BD10B540F225512348FFF7D6FCC6
:1015F00048B140F225512048FFF7F6FC1E48FFF79E
:101600006EFCC4B200E010BD00212046FFF7C2FF0F
:1016100000BFF8E710B504460BE014F8011B1648AC
:10162000FFF759FC00BF80211348FFF7ABFC0028EF
:10163000F9D020780028F0D110BD70B504460D46D1
:1016400002F090F806460BE014F8011B0A48FFF779
:1016500042FC00BF80210848FFF794FC0028F9D025
:101660002800A5F101018DB2EED1304602F07EF8DE
:1016700070BD000000080140004400401C00002034
:10168000100400207CB5002514E06946284601F0CE
:101690002CFE064666B9F74850F8254044B1012CA7
:1016A00006D0D4E9020100EB810060640198A064D7
:1016B000681CC5B23F2DE8D97CBD002400BF02E004
:1016C000282001F01BFFEC4800780028F8D0EB48F8
:1016D00000686421B0FBF1F0E84908600846006842
:1016E00028B90020E6490870FF2001F040FE00BF45
:1016F00002F038F80446E3480068E3490860002037
:10170000E0490860204602F031F8DF480068DB4914
:101710000968B0FBF1F0C0F16400D949087001F02C
:10172000CEFFFFF7AFFF142001F0E8FEE0E700B5C1
:1017300087B0032000218022D44BCDE90132CDE9CE
:1017400003104FF6FE703E23D14A0090AFF2950091
:1017500001F0E0FB06AACFA13E2001F045FD07B055
:1017600000BD002400BF00BF01F0FCFF0446C548D7
:101770000068401CC3490860204601F0F7FF01F0F3
:101780009DFFF1E700B587B0032000218022C54B03
:10179000CDE90132CDE903104FF6FF703F23C24A75
:1017A0000090AFF2410001F0B5FB06AABFA13F20B7
:1017B00001F01AFD07B000BD04E0002200F8012B83
:1017C0004A1E91B20029F8D1704770B5C821BB48B4
:1017D000FFF7F2FF00230FE0581C85B203EB8300F4
:1017E000B64901EB800405EB850001EB8006002083
:1017F00020706660581C83B2092BEDD303EB830085
:10180000AE4901EB80040020207060600846AC49BE
:10181000086070BD70B54FF47C71AA48FFF7CCFF2B
:101820004FF480719348FFF7C7FF002413E0601C5A
:10183000C5B2C4EBC40000EB4000A24901EB800339
:10184000C5EBC50000EB400001EB80065E619EA089
:10185000D864601CC4B20B2CE9D3C4EBC40000EB09
:101860004000984901EB80030020586196A0D8649D
:1018700000209649086093489549086070BD002192
:10188000944A1170002004E00021934A1154411C35
:10189000C8B20828F8D30021904A1170904A1170FC
:1018A000904A1160904A1160704700208F4908608B
:1018B0008F4908708F4908708F4908708F490870E8
:1018C0008F4908606F4908606F4908606B4908607C
:1018D00069490870704710B501F0ECFEFFF7E5FFAD
:1018E000FFF7CDFFFFF796FFFFF76FFF00F0FFFE5A
:1018F00001F0F5F9FFF746FFFFF719FF01F0DBFEF6
:1019000010BD7E480078012808D179480078FF286A
:1019100004D277480078401C7549087070477949AF
:101920006C4A1278885C6C49095C764A515C01EB20
:10193000C0016B4A1170704710B500246F480078E1
:10194000012830D101F00EFF04466948007820B12B
:1019500067480078401E6649087065480078F8B905
:1019600064480078E0B9FFF7DAFF42485C4909783B
:1019700050F821005B4908605948007857490978B8
:1019800088420DD057480068806B401C5549096853
:1019900088635B480068401C5949086001F001FFFA
:1019A000204601F0E3FE10BD10B500245348007836
:1019B000012811D101F0D6FE04464D48007840B907
:1019C0004C480078FF2804D24A480078401C494916
:1019D0000870204601F0CAFE10BD10B5002401F0C9
:1019E000C1FE044642480078F8B942480078E0B9A0
:1019F000FFF795FF1F483A49097850F82100394907
:101A00000860374800783549097888420DD0354854
:101A10000068806B401C3349096888633848006857
:101A2000401C3749086001F0B5FE204601F09EFEDB
:101A300010BD10B500243148007801286FD101F0A5
:101A400091FE04462B48007880B12A480078401E59
:101A5000284908700846007848B92548007838B900
:101A6000204601F083FEFFF7B8FF58E054E04FE056
:101A70004AE00000BC0900203800002030000020AF
:101A80002C0000204800002034000020BC0500206D
:101A9000B807002075432F4F532D494920537461D7
:101AA00074000000BC070020B809002075432F4FC8
:101AB000532D49492049646C65000000A4040020AE
:101AC00024000020BC0A00203F0000005800002035
:101AD000500000203D0000203E0000203B00002080
:101AE0003C000020540000204C0000206400002036
:101AF000390000203A000020470000204600002066
:101B00002000002084480008204601F02FFE06E057
:101B1000204601F02BFE02E0204601F027FE10BD1A
:101B200010B5F248007890B9FFF7F9FEF048007858
:101B3000F0490870F048EE49097850F82100EF4963
:101B4000086008460068EE49086001F012FE10BD0A
:101B500010B50024022001F0D1FC01F003FE044680
:101B60000020E8490860204601F000FE142001F042
:101B7000C5FC01F0F7FD0446E2480068E249086050
:101B80000120E2490870204601F0F0FD10BD70B55B
:101B9000002601F0E4FD01F0E5FD0646DC480068A2
:101BA000401CDB490860304601F0E0FDCF4800787A
:101BB000012857D1D748007820B1012804D0022845
:101BC00009D103E001250BE0002509E001250120F2
:101BD000D049087004E001250020CE49087000BFFC
:101BE00000BF05B970BDCC48046837E001F0BAFD0C
:101BF0000646E06A70B3E06A401EE062E06A48BBF5
:101C000094F8300010F0370F09D014F8300F00F0BE
:101C1000C800207001206070A4F1300402E00020B0
:101C200084F8310094F8300010F0080F12D104F15C
:101C30003404A078B949097840EA0100B74908702E
:101C40002078B749085C617840EA010014F834193B
:101C5000B34A50546469304601F088FD94F832006C
:101C60003F28C3D100BFBDE740F223107047704743
:101C700010B590F8342001F10B039B5C90F83540CF
:101C8000A34301F10B04A35423469B5C23B98B7A35
:101C900090F83640A3438B7210BD2DE9F04F0546F6
:101CA0000F4690469946A87A9E490E5C05F10B00B6
:101CB000805D11F800B00BEBC60000F0FF0A8E4803
:101CC00050F82A40002004F12004E0602760207CC6
:101CD00020EA0800207484F81190207CA4F12004EC
:101CE00010F0080F0DD194F836008C49097808439C
:101CF0008A4908708A48805D94F8351008438849FD
:101D0000885529462046FFF7B3FF5046BDE8F08FBF
:101D100010B57B4A1268D061794A126892F8343063
:101D200000F10B02D25C764B1B6893F835301A43F6
:101D3000734B1B6893F8344000F10B031A55827AF9
:101D40006F4B1B6893F836301A4382726C4A1268E4
:101D500092F83410724A525C694B1B6893F8353024
:101D60009A436F4B5A541A46525C42B9644A1268FD
:101D700092F83630694A12789A43684B1A7010BD4F
:101D8000014600228A72002005E0002301F10B02C7
:101D90001354421CD0B20828F7D3704705E011F85D
:101DA000013B00F8013B531E9AB2002AF7D170475D
:101DB0000146002002E0491C421CD0B20A78002AE9
:101DC000F9D170472DE9F84F05460F4690469946E0
:101DD000DDE90AAB0020009001F0C4FC00905248FD
:101DE0000468002C7CD004F1180454F8040C4E490B
:101DF0000860009801F0BAFC44F8187CA576002031
:101E000020766076606144F814BC44F80CAC44F869
:101E1000108C0C9824F8080C24F8069C0020E0771D
:101E2000E810207705F00700E076217F0120884048
:101E3000A077E17E01208840607700206060E0604C
:101E4000A0602062A0626062E0622063AFF288302E
:101E50006063A4F118044FF0000606E0002104F1CD
:101E6000500040F82610701CC6B2002EF6D0204656
:101E700001F074FC204601F01FFC01F073FC00909F
:101E80001D4840F825402448006860610020A0619A
:101E90002148006810B12048006884611E48046031
:101EA00004F13404A0781D49097840EA01001B4977
:101EB000087020781A49085C617840EA010014F83B
:101EC0003419174A50541948007800F10100174995
:101ED0000870009801F04AFC0020BDE8F88FFFE789
:101EE000009801F043FC4220F7E700004600002084
:101EF0003C0000203B000020BC09002054000020D2
:101F00004C00002048000020300000203800002055
:101F1000640000205C000020580000203D000020EC
:101F20003E000020844800085000002047000020A8
:101F30002DE9F05F04460F4691461E464FF0000B18
:101F40002078052804D0012030700020BDE8F09FE3
:101F500009F0800ABAF1000F04D029F080094FF08F
:101F6000010801E04FF000080020307001F0FAFB9A
:101F70008346B9F1000F2CD0B9F1010F3BD0B9F174
:101F8000020F03D0B9F1030F46D111E0208900EA16
:101F90000705BD4206D1B8F1010F05D12089A8433C
:101FA000208101E070203070584601F0DFFB3AE0FC
:101FB000208900EA070535B1B8F1010F05D1208964
:101FC000A843208101E070203070584601F0CEFB1C
:101FD00029E0208927EA0005BD4206D1B8F1010FAA
:101FE00005D120892843208101E0702030705846B7
:101FF00001F0BCFB17E0208927EA000535B1B8F1F4
:10200000010F05D120892843208101E07020307024
:10201000584601F0ABFB06E0584601F0A7FB00254F
:102020006F20307000BF00BF28468FE72DE9F041D8
:1020300006460D460027FD48007820B11020287084
:102040000020BDE8F08101F08DFB0746F8480468E8
:1020500084B100684068F649086005202070268138
:1020600000206060F3A0E060384601F07FFB0020B4
:10207000287004E0384601F079FB72202870204671
:10208000DFE730B501464A6808682AB9CC68606065
:1020900028B10025456002E0106000B142608B6805
:1020A00000255D6230BDF0B506460F46B4680020DD
:1020B00004F1280460602780207A00F0DF0020729D
:1020C0004FF000006072207AA4F12804A8B904F14E
:1020D0003404A078D849097840EA0100D64908704C
:1020E0002078D649085C617840EA010014F8341978
:1020F000D24A50544FF0010500E000253046FFF76A
:10210000C0FF2846F0BD2DE9F04704468946154634
:102110004FF0000AC548007820B10F2028702046F3
:10212000BDE8F0872078052803D0012028702046DC
:10213000F6E701F017FB8246606808B1012700E06E
:102140000027B9F1000F03D0B9F1010F3CD119E01C
:102150008FB9B8A0E06000202070B54800686060CA
:1021600000202081B2480460504601F0FFFA0020B0
:102170002870002605E0504601F0F8FA4920287042
:10218000264628E0D4F8048005E000214046FFF709
:102190008AFFD8F80080B8F1000FF6D1A5A0E06062
:1021A00000202070A2480068606000202081A048C4
:1021B0000460504601F0DAFA012F01D1FFF70DFC5F
:1021C00000202870002606E0504601F0CFFA0720D4
:1021D0002870264600BF00BF3046A1E72DE9F04138
:1021E00005460E46144600279048007820B111207D
:1021F00020700020BDE8F08101F0B4FA074628788D
:10220000052806D0384601F0B1FA012020700020E0
:10221000F0E7E86830603068FFF7CAFD804638466E
:1022200001F0A4FA002020704046E3E72DE9F041D8
:1022300005460E46144600277C48007818B1122047
:102240002070BDE8F08101F08DFA07462878052856
:1022500005D0384601F08AFA01202070F1E7EE60DF
:10226000384601F083FA0020207000BFE9E7F0B59E
:102270001446059E724F3F6897F8307047F020076C
:10228000DFF8BCC1DCF800C08CF830700027DFF844
:10229000B0C1DCF800C08CF83170694F3F68FE6255
:1022A000674F3F6879620C828B74654F3F688F601F
:1022B00047680F6000274F60C860456805B16960D6
:1022C00041605F4F3F6897F834205C4FBF5CDFF898
:1022D00070C1DCF800C09CF835C027EA0C07DFF8B5
:1022E0005CC10CF802706746BF5C5FB9544F3F6831
:1022F00097F836C0504F3F7827EA0C07DFF838C10F
:102300008CF80070F0BD2DE9F04F89B005460F46FE
:1023100091469A46129E002002904448007828B1C7
:1023200002203070002009B0BDE8F08F45480078E9
:1023300018B10D2030700020F5E72878052803D06B
:10234000012030700020EEE709F0800BBBF1000F98
:1023500004D009F07F094FF0010801E04FF00008B8
:1023600001F000FA0290B9F1000F4AD0B9F1010F63
:1023700078D0B9F1020F03D0B9F1030F71D120E089
:10238000288900EA0704BC420FD1B8F1010F02D13D
:102390002889A04328812A4800680485029801F012
:1023A000E5F9002030702046BDE74B463A4604A9C7
:1023B0002846CDF800A0FFF75AFF029801F0D6F9A1
:1023C00078E0288900EA07047CB1B8F1010F02D156
:1023D0002889A04328811A4800680485029801F0E2
:1023E000C5F90020307020469DE74B463A4604A9C7
:1023F0002846CDF800A0FFF73AFF029801F0B6F9A1
:1024000058E0288927EA0004BC421ED1B8F1010F28
:1024100002D1288920432881094800680485029850
:1024200001F0A4F90020307020467CE7390000203C
:10243000280000203F0000003D0000203E0000205A
:102440004C0000203A0000200CE04B463A4604A91C
:102450002846CDF800A0FFF70AFF029801F086F9A0
:1024600028E01FE0288927EA00047CB1B8F1010FB9
:1024700002D1288920432881B04800680485029849
:1024800001F074F90020307020464CE74B463A4684
:1024900004A92846CDF800A0FFF7E9FE029801F054
:1024A00065F907E0029801F061F900246F203070AF
:1024B000204638E700BFFFF790FA01F053F9029089
:1024C0009E48006890F8310020B39C48006890F85E
:1024D0003100039000209949096881F8310004A86F
:1024E000FFF7CFFD00209549096881F83000029878
:1024F00001F03CF900240398012805D0022802D1FC
:102500000E20307003E000BF0A20307000BF00BF13
:10251000204608E789480068048DB8F1010F1ED1F4
:10252000B9F1000F0ED0B9F1010F0CD0B9F1020FC3
:1025300003D0B9F1030F0AD100E000BF2889A043FE
:1025400028810BE000BF28892043288106E00298FB
:1025500001F00CF96F2030700020E4E600BF029813
:1025600001F004F9002030702046DCE670B500254B
:1025700001F0F8F8054671480068048D284601F01E
:10258000F5F8204670BD2DE9FC5F04468946924669
:102590001E46002000902078052804D001203070CD
:1025A0000020BDE8FC9F01F0DDF80090BAF1000FBB
:1025B00003D0BAF1010F0AD104E0208920EA090012
:1025C00020810BE0208940EA0900208106E0009884
:1025D00001F0CCF8712030700020E2E700BF4FF02E
:1025E000000B656855E0A87C40B3012838D002286C
:1025F00002D0032844D111E02089298A00EA01078A
:10260000288AB84209D139462846FFF74CFD804652
:10261000B8F1010F01D14FF0010B38E02089298A70
:1026200000EA01074FB139462846FFF73CFD8046D6
:10263000B8F1010F01D14FF0010B28E0288A218960
:1026400020EA0107288AB84209D139462846FFF70F
:102650002AFD8046B8F1010F01D14FF0010B16E0C1
:10266000288A218920EA01074FB139462846FFF719
:102670001AFD8046B8F1010F01D14FF0010B06E0C1
:10268000009801F073F86F203070002089E700BFD8
:102690002D68002DA7D1009801F068F8BBF1010F5B
:1026A00001D1FFF79AF901F05DF8009020890190BF
:1026B000009801F05BF800203070019871E72DE977
:1026C000F04104460D4600272078052804D001205B
:1026D00028700020BDE8F08101F044F80746268903
:1026E000384601F043F8002028703046F2E72DE923
:1026F000F04150211248FFF75FF800250EE0681CFA
:1027000086B20F4800EB051400EB0617002020707E
:102710006760AFF2E020E060681C85B2042DEED364
:10272000074800EB0514002020706060AFF2FC2029
:10273000E060034803490860BDE8F0814C000020D8
:102740006C050020280000202DE9F04106460D46CA
:102750004FF000083078022804D0012028700020B3
:10276000BDE8F08100F0FEFF80467468E08A78B131
:102770002169081D20610F68E08A401EE082A1687F
:102780002069884201D1606820610020287002E041
:102790001F2028700027404600F0E8FF3846DFE79A
:1027A0002DE9F04106460F464FF00008F748007843
:1027B00010B10020BDE8F08100F0D4FF8046F4485D
:1027C0000568006820B1F24800684068F049086078
:1027D000404600F0CBFF3DB300F0C4FF8046ED481B
:1027E0000468C4B100680068EA490860404600F027
:1027F000BDFF666006EB8700A060E6602661A782E9
:102800000020E08202202870002028816C60284689
:10281000FFF7B6FA08E0DE4800686860DC4805604B
:10282000404600F0A3FF00252846C3E72DE9F04706
:102830000446894615464FF0000A2078022804D045
:10284000012028702046BDE8F087D048007818B1F4
:102850000F2028702046F6E700F084FF8246A07A19
:1028600010B14FF0010801E04FF00008B9F1000F7E
:1028700003D0B9F1010F45D11FE0B8F1000F15D118
:102880006668C44800683060C24806600020207056
:10289000BF480068606000202081BD480460504649
:1028A00000F064FF00202870002705E0504600F08B
:1028B0005DFF4920287027462BE005E00023042215
:1028C00019462046FFF7E9F9A07A0028F6D1666894
:1028D000B04800683060AF48066000202070AC4807
:1028E0000068606000202081A9480460504600F024
:1028F0003DFFB8F1010F01D1FFF76FF800202870FC
:10290000002706E0504600F031FF072028702746D8
:1029100000BF00BF384696E770B50546002600F0B8
:1029200021FF06466C686068E060606820610020F6
:10293000E082304600F01AFF002070BD2DE9F0471C
:102940000746884615464FF000093878022804D01B
:10295000012028700020BDE8F0878C48007818B16D
:10296000022028700020F6E78B48007818B10D206F
:1029700028700020EFE700F0F5FE81467C68E08AD1
:1029800098B12169081D20610E68E08A401EE0822E
:10299000A1682069884201D160682061484600F042
:1029A000E5FE002028703046D5E77C48006890F8A6
:1029B000300040F004007949096881F830000020B7
:1029C0007649096881F8310074480068C0F82C80A5
:1029D0003846FFF79DF9484600F0C8FEFEF7FDFFB8
:1029E00000F0C0FE81466D48006890F8310020B1CB
:1029F00001280DD002280AD105E068480068066A5F
:102A0000002028700DE000260E20287009E000BF8D
:102A1000394662480068FFF72BF900260A20287023
:102A200000BF00BF00205D49096881F830005B49A4
:102A3000096881F8310059490968C861574909682E
:102A40000862484600F092FE304684E72DE9F041E6
:102A500004460F4615464FF000082078022804D09F
:102A6000012028700020BDE8F08100F07BFE804648
:102A7000A07A20B300267FB1012F0CD107E00223FA
:102A8000042200212046FFF708F9701CC6B2A07A84
:102A90000028F4D109E000BF0223042200212046CF
:102AA000FFF7FBF8701CC6B200BF00BF404600F045
:102AB0005DFEFEF792FF0E2028703046D3E74046B9
:102AC00000F054FE0020287000BFCCE72DE9F04153
:102AD00005460E4600272878022802D00120BDE8CE
:102AE000F08100F03FFE0746A87A60B1002304227F
:102AF00031462846FFF7D1F8384600F037FEFEF79A
:102B00006CFF0020EBE76C68E08AA18A884204DB56
:102B1000384600F02BFE1E20E1E7E168081DE0606A
:102B20000E60E08A401CE082D4E90210884201D1A4
:102B30006068E060384600F019FE0020CFE72DE91C
:102B4000F04105460E4600272878022802D00120D1
:102B5000BDE8F08100F006FE0746A87A60B10023C8
:102B6000042231462846FFF798F8384600F0FEFD6B
:102B7000FEF733FF0020EBE76C68E08AA18A884209
:102B80000EDB384600F0F2FD1E20E1E739000020A0
:102B900024000020600000203A0000204C000020AB
:102BA00061682069884201D1A06820612069001F06
:102BB000206120690660E08A401CE082384600F00F
:102BC000D5FD0020C4E72DE9F04105460F46164625
:102BD0004FF000082878022802D00120BDE8F081DB
:102BE00000F0C0FD8046A87AE8B116F0010F0AD0C7
:102BF00005E00023042239462846FFF74EF8A87A5C
:102C00000028F6D105E00023042239462846FFF7C4
:102C100044F8404600F0AAFD16F0040F01D1FEF77B
:102C2000DCFE0020DAE76C68E08AA18A884204DBD7
:102C3000404600F09BFD1E20D0E716F0020F0BD09F
:102C400061682069884201D1A06820612069001F65
:102C500020612069076009E0E168081DE0600F60FD
:102C6000D4E90210884201D16068E060E08A401C2B
:102C7000E082404600F07AFD0020AFE72DE9F04702
:102C800005460C464FF0000A2878022802D00120A1
:102C9000BDE8F08700F066FD8246A87A207405F151
:102CA0000B0804F10809002705E018F8010B09F8E2
:102CB000010B781CC7B2082FF7D36E68F08A18B1E1
:102CC00030690068206001E000202060F08AA08068
:102CD000B08AE080504600F049FD0020D8E72DE999
:102CE000F04178211048FEF767FD00240DE0601CDC
:102CF00086B204EB44000C4901EBC00506EB46002C
:102D000001EBC0072F60601C84B2042CEFD304EBEE
:102D10004400054901EBC00500202860084603492E
:102D20000860BDE8F0810000AC0E002060000020CB
:102D30002DE9FF5F814688460020009000F012FDDB
:102D40000090FA4850F8280030B1009800F00EFDCD
:102D5000282004B0BDE8F09FB9F1FF0F03D1F4487B
:102D6000006890F83290F14850F8294024B9009852
:102D700000F0FCFC2920ECE7012C04D1009800F0C5
:102D8000F5FC4320E5E74FEAE80708F00700039069
:102D90000120B84000F0FF0A01210398814001F0B2
:102DA000FF0B0020E14941F82900084640F828407F
:102DB00014F8346FA07802906078A4F13404019084
:102DC000DC48815D019801421AD0DA48805D0199A2
:102DD0008843D84988550846805D28B9D648007888
:102DE00002998843D4490870D348007840EA0A0021
:102DF000D1490870CF48C05D40EA0B00CD49C855A5
:102E0000E569D5B105F10B00805D0199884305F1B5
:102E10000B0188550846805D18B9A87A0299884345
:102E2000A872A87A40EA0A00A87205F10B00C05DFA
:102E300040EA0B0005F10B01C85584F8328084F894
:102E40003470039884F8330084F836A084F835B0E1
:102E5000009800F08BFCB9480078012801D1FEF7FA
:102E6000BCFD002075E72DE9FE4F06460F46904653
:102E70001C464FF0000900F075FC8146B048007810
:102E800028B1484600F072FC3C20BDE8FE8FA74800
:102E900050F8240060BB0120A44941F824004846B2
:102EA00000F064FC002342463946304600F008FC3E
:102EB000824600200090019003460246514602904F
:102EC0002046FEF77FFF054635B99C48007801286B
:102ED0000CD1FEF782FD09E000F044FC81460020A1
:102EE000924941F82400484600F040FC2846CCE7CF
:102EF000484600F03BFC2820C7E712F0010F08D03D
:102F000012F0020F05D002E0491E002308C000297C
:102F1000FAD170472DE9F04F85B081468A46934635
:102F20001C46DDE90F78129D0020039000F01AFC8A
:102F300003908348007830B1039800F017FC3C20E0
:102F400005B0BDE8F08F794850F8240088BB012017
:102F5000764941F82400039800F008FC2A464146CF
:102F60003846FFF7CAFF2B465A465146484600F0FE
:102F7000A7FB04901198CDE9008002953A462046BF
:102F80000E9B0499FEF71EFF064636B96B48007883
:102F900001280CD1FEF721FD09E000F0E3FB0390CE
:102FA0000020624941F82400039800F0DFFB30461E
:102FB000C6E7FFE7039800F0D9FB2820C0E72DE91A
:102FC000F041054600275E48007810B14020BDE87A
:102FD000F0813F2D01D13E20F9E700F0C3FB074609
:102FE000FF2D03D15248006890F832504F4850F8F6
:102FF000254024B9384600F0B9FB4320E7E7012C0F
:1030000004D1384600F0B2FB3D20E0E714F8340F5D
:103010004849085C617888432178464A505414F83E
:1030200034091146085C30B994F8361042480078EB
:10303000884341490870E06918B12046E169FEF70C
:1030400017FE666A16B13046FFF71BF80020E062F3
:1030500084F8300084F831003A480078FF2804D220
:1030600038480078401C37490870384600F07EFB2D
:10307000FEF7FDFD00F076FB07463248007820B1F0
:1030800030480078401E2F490870204600F015FB9C
:103090002D480078401E2C4908700020234941F833
:1030A0002500A06930B900206169886127496069FD
:1030B000086005E0D4E905014861D4E9051088619C
:1030C0002348006860612248046022A0E06438461A
:1030D00000F04CFB19480078012801D1FEF77DFC77
:1030E000002074E72DE9F041044600273F2C02D16F
:1030F0003E20BDE8F081FF2C0BD100F033FB0746EA
:103100000B48006890F83760384600F02FFB3046D7
:10311000EFE700F027FB0746044850F82450DDB9DC
:10312000384600F023FB4320E3E70000BC09002001
:103130004C0000203E0000203D0000204600002002
:10314000390000203A0000204700002058000020ED
:10315000500000203F000000012D04D1384600F04F
:1031600005FB3D20C5E73F2085F83700384600F0D5
:10317000FDFA0020BDE72DE9F04706460F4614464C
:103180004FF00008D748007820B1112020700020AF
:10319000BDE8F08700F0E6FA8046FF2E03D1D24862
:1031A000006890F83260D14850F8265035B9404652
:1031B00000F0DCFA432020700020E9E7012D06D161
:1031C000404600F0D3FA432020700020E0E7E86C8E
:1031D00038603868FEF7ECFD8146404600F0C6FADC
:1031E000002020704846D3E72DE9F04106460F46FF
:1031F00014464FF00008BB48007818B11220207028
:10320000BDE8F08100F0AEFA8046FF2E03D1B6484B
:10321000006890F83260B54850F826502DB9404605
:1032200000F0A4FA43202070EAE7012D05D14046C2
:1032300000F09CFA43202070E2E7EF64404600F083
:1032400095FA0020207000BFDAE770B50546002629
:1032500000F088FA0646A54850F8254024B93046C3
:1032600000F084FA462070BD012C04D1304600F0F5
:103270007DFA4320F7E794F8300010F0080F2FD0C4
:1032800014F8300F00F0F700207014F8300910BB6C
:10329000E06AE0B904F13404A0789549097840EA7D
:1032A00001009349087020789249085C617840EAEF
:1032B000010014F834198F4A5054304600F056FA81
:1032C0008D480078012809D1FEF787FB06E03046DB
:1032D00000F04CFA02E0304600F048FA0020C2E765
:1032E000304600F043FA4420BDE72DE9F047074699
:1032F0000D464FF0000A00202860686000F032FAA6
:103300008246FF2F03D17848006890F832707748E2
:1033100050F827402CB9504600F028FA4320BDE869
:10332000F087012C04D1504600F020FA4320F6E744
:10333000207C10F0010F04D1504600F017FA452010
:10334000EDE70026D4F80C90D4F80880504600F041
:103350000DFA00E0761C58F8041B0029FAD0B000E2
:103360002860A9EB0600800068600020D7E72DE9FF
:10337000F04105464FF0000800F0F4F98046FF2DBB
:1033800005D15948006890F83250012608E05648A7
:10339000006890F83200A84201D1012600E0002622
:1033A000524850F825402CB9404600F0DFF948203B
:1033B000BDE8F081012C04D1404600F0D7F943204C
:1033C000F6E794F834704B48C05D94F835108843A4
:1033D0004849C8550846C05D30B994F8361044488D
:1033E000007888434249087094F8300040F00800A3
:1033F00084F83000404600F0B9F9012E01D1FEF703
:10340000ECFA0020D4E72DE9F04105460E460027EE
:1034100000F0A8F90746FF2D03D13348006890F863
:103420003250324850F825402CB9384600F09EF909
:103430002920BDE8F081012C04D1384600F096F92E
:103440004320F6E7542221463046FEF7A7FC3846D3
:1034500000F08CF90020ECE72DE9F04704460E4619
:1034600017464FF0000900F07DF98146FF2C02D18C
:103470001D48056802E01D4850F8245005F1500031
:1034800050F82680484600F071F900203870404618
:10349000BDE8F0872DE9F04704460E4617469846EA
:1034A0004FF0000900F05EF98146FF2C02D10E4872
:1034B000056802E00D4850F8245005F1500040F82E
:1034C0002670484600F052F9002088F80000BDE858
:1034D000F08710B50448006800F042F9FF20FFF7BC
:1034E0006EFD10BD390000204C000020BC090020FA
:1034F0003D0000203E0000204600002070B505463B
:1035000000266548007800B170BD6448007800B1BD
:10351000FAE71DB300F026F906466148006890F806
:1035200034406048005D5E49096891F83510884371
:103530005C4908550846005D40B95948006890F854
:103540003610594800788843574908705448006835
:10355000C562304600F00AF9FEF73FFA00BFD3E734
:103560002DE9F04104460D4616461F464A480078AC
:1035700010B15520BDE8F0814848007808B13220EC
:10358000F8E7B81CC82148434FF47A71B0FBF1F159
:103590004FF461606043C5EB051200EB82003044DC
:1035A00000EBC00202EB001001EBC0084046FFF741
:1035B000A5FF0020DEE770B5054600263F2D01D3AC
:1035C0002A2070BD00F0CEF80646384850F8254055
:1035D00024B9304600F0CAF84320F2E7012C04D1A8
:1035E000304600F0C3F84320EBE7E06A20B93046EC
:1035F00000F0BCF85020E4E70020E06294F83000CE
:1036000010F0370F09D014F8300F20F03700207079
:1036100001206070A4F1300402E0002084F8310041
:1036200094F8300010F0080F18D104F13404A07899
:103630001D49097840EA01001B49087020781949A2
:10364000085C617840EA010014F83419154A5054B6
:10365000304600F08BF8FEF7C0F902E0304600F08B
:1036600085F80020ADE770B5002500F07BF8054631
:103670000F480468284600F079F8204670BD70B500
:103680000446002500F06EF8054609480460284607
:1036900000F06CF870BD0000390000203A000020F6
:1036A0004C0000203E0000203D000020BC0900200E
:1036B000640000207047704770477047704770473C
:1036C00070B5044610464FF080750560051F28460A
:1036D0002C606FF00106051F28462E604FF0123651
:1036E000051F28462E604FF00336051F28462E6022
:1036F0004FF00236051F28462E607610051F28461B
:103700002E60051F284629604FF01136051F2846F8
:103710002E604FF01036051F28462E604FF00936F8
:10372000051F28462E604FF00836051F28462E60DC
:103730004FF00736051F28462E604FF00636051F4E
:1037400028462E604FF00536051F28462E604FF0A4
:103750000436051F28462E6070BD704770477047BD
:1037600070470000EFF3108072B6704780F3108846
:103770007047204C204D25604FF0000484F30988E9
:103780001E4C4FF0010525701D4C4FF080552560F3
:1037900062B6FEE730B41A4C4FF08055256030BC5D
:1037A000704730B4164C4FF08055256030BC7047E0
:1037B00000BF72B6EFF3098028B1203880E8F00F1F
:1037C00010490968086000B50F4880475DF804EBB0
:1037D0000E480F490A7802700A480E490A680260CA
:1037E000106890E8F00F203080F309884EF0040E46
:1037F00062B6704720ED00E00000FFFF46000020A9
:1038000004ED00E04C0000205B3700083B00002086
:103810003C0000205400002000242046FDF750FD0D
:10382000FDF77AFEFDF787FC00F0F5FB08E000F0FD
:10383000C6FA0AA0FDF757FE4FF47A70FCF708FEAF
:10384000F5E703242046FDF73BFD06E06420FCF786
:10385000FFFD01210020FDF79DFEF7E77379735FFF
:103860007469636B0D0A00002DE9FC4105460E46A4
:103870001446FE4903C9CDE900010027BDF8010047
:10388000204480B2ADF80100E8B28DF80400F84899
:10389000D0F86D200621684690470746A1B2F4484B
:1038A000D0F86D2030469047074638B2BDE8FC811D
:1038B0006021016600214166816670470146486EBD
:1038C0000844704770B504460E461546A06E28445D
:1038D000216E884208DAA16E08192A46314600F0A6
:1038E00019FDA06E2844A06670BD0146886E4A6E20
:1038F000801A70470246506E08445066506E936EB0
:10390000984202D10020506690667047D8490870EE
:103910007047D7480078704770B504462546287A26
:1039200053280BD000BFD3A1DB4800F0ADFBDA4831
:10393000FDF7D9FD00BF0620FFF7E8FFFFF7E9FF1D
:1039400098B9687A302807D1C949D1F875008047FD
:103950000120FFF7DBFF1CE000BFD0A1CE4800F044
:1039600093FBCD48FDF7BFFD13E0FFF7D2FF012821
:103970000FD1687A312803D10320FFF7C7FF08E091
:1039800000BFC6A1C44800F07FFBC348FDF7ABFDF4
:1039900000BF4FF0FF3070BDF0B504460D4600216A
:1039A00000BF18E001EB8106C14800EB460000882B
:1039B000A0420FD101EB8106BD4800EB4600C0F8E4
:1039C000022001EB8106BA4800EB4600C0F8063041
:1039D0000020F0BD491CB648001F00888842E1DC89
:1039E000B348001F0088B24E361F7688B04225DAF1
:1039F000AF48001F008800EB8006AD4800EB460092
:103A00000480AB48001F06880088401CA84F3F1F59
:103A1000388006EB8606381D00EB4600C0F8022011
:103A2000384606880088401C388006EB8606381D1C
:103A300000EB4600C0F806300020CAE70120C8E7C6
:103A40002DE9F04104460D4617469846002604B17C
:103A500015B90120BDE8F081002607E034F8160012
:103A600043463A460021FFF797FF761CAE42F5DB4E
:103A70000020EFE70246002100BF0EE001EB8103CA
:103A80008B4800EB43000088904205D101EB810395
:103A9000874800EB43007047491C8548001F008899
:103AA0008842EBDC0020F6E72DE9F041044627468A
:103AB00000253888A0F54070E9380FD12646708877
:103AC000FFF7D8FF054645B1D5F8020028B1317996
:103AD0007088D5F802300022984700E000BF00BF90
:103AE0004FF0FF30BDE8F08170B506463046FFF775
:103AF000E5FE0446207851285FD13046FFF7F5FEF9
:103B0000B4F80110884256DBE078422846D10025FF
:103B100000BF68A1604800F0B7FA5F48FDF7E3FC1A
:103B200000BF2079422802D043280AD104E0A01D1A
:103B3000FFF7BAFF054612E0A01DFFF7EDFE0546B0
:103B40000DE000BF22795FA1534800F09DFA524872
:103B5000FDF7C9FC00BFB4F8010000B270BD00BFA2
:103B600000BF61A14C4800F08FFA4B48FDF7BBFC49
:103B700000BF15F1020F06D0B5F1FF3F06D1B4F832
:103B8000010000B2EAE76FF00100E7E7002D01DD78
:103B9000A81D01E04FF0FF3000B2DFE700BF59A1E0
:103BA0003D4800F071FA3C48FDF79DFC00BFB4F8B9
:103BB000010000B2D2E70020D0E73046FFF795FEC3
:103BC00006280AD300BF55A1334800F05DFA3248F9
:103BD000FDF789FC00BF0120C0E70020BEE730B53B
:103BE00093B0002510200E9000200D9000BF53A12F
:103BF000294800F049FA2848FDF775FC00BF002469
:103C000042F20F700D9001A82044BDF834100180DD
:103C1000A41C00BFBEE010200E9005EB85012448D7
:103C200000EB4100D0F80600F0B105EB8502204919
:103C300001EB4201088805EB85021D4901EB4201B9
:103C4000D1F806300EAA0FA99847BDF93800002810
:103C50000ADDBDF938002044102805DA01A8011951
:103C600005EB8502124879E092E0000088490008DF
:103C7000A40F0020536572766572204E4F54207356
:103C80007572706F74207468697320446576696317
:103C900065212121210D0A00240F0020556E6B6F34
:103CA000776E20526573756C74212121210D0A00F5
:103CB0006C00002068616E646C65696E672E2E2E44
:103CC0000D0A0000556E737572706F727465642012
:103CD000636F6E74656E742074797065203058253A
:103CE0003032580D0A00000068616E646C65207304
:103CF00075636365737321212121212121212121F4
:103D0000210D0A004D4147494332206973206E6FEF
:103D100074207269676874212121210064617461D3
:103D2000206572726F7221212120536B6970206FA0
:103D30006E65206279746521210000007368705FF0
:103D400073656E645F73797374656D5F7469636BBB
:103D50005F646174612E2E2E0D0A000000EB42009C
:103D600000880880A41CBDF83800001D00B20D902A
:103D700001A82044BDF834100180A41C01A9081931
:103D8000BDF938200FA900F0C5FABDF93800044488
:103D9000681C05B24A480088A8423FF73CAF22B2EF
:103DA00001A94220FFF760FD00BF46A14E4800F088
:103DB0006BF94D48FDF797FB00BF13B030BD10B550
:103DC0004A480078002804DD48480078401E4749EA
:103DD0000870FFF79EFD38B9032044490870444934
:103DE000D1F87100804700E000BF00BF3F48007875
:103DF00020B903203D490870FFF7F1FE10BD70B5F2
:103E000004460D4616467921394800F0C8FA38486C
:103E1000401CFFF74DFD0020354908700846C0F8EA
:103E20006D40C0F87150C0F8756070BD2DE9F0416B
:103E300006460D4600242A4631462D48401CFFF711
:103E400041FD00BF00BF2A48401CFFF74EFD07465A
:103E50003A4628A1244800F017F92348FDF743FB10
:103E600000BF2348401CFFF73FFE044600BF224628
:103E70002CA11D4800F008F91B48FDF734FB00BFDA
:103E8000002C05DD21461A48401CFFF733FD0BE0EE
:103E9000002C09DA1648401CFFF727FD0746394673
:103EA0001348401CFFF726FD002C05DD1048401C80
:103EB000FFF71BFD0028C5DC28B2BDE8F08100003B
:103EC000680000207368705F73656E645F73797358
:103ED00074656D5F7469636B5F646174612E2A44FD
:103EE0004F4E452A0D0A0000240F00200C0100202F
:103EF000A40F0020546865726520617265202564F6
:103F000020427974657320446174612077616E7416
:103F100020746F2068616E646C65212121210D0A77
:103F20000000000068616E646C655F7265636965BE
:103F30007665645F62756666657220557365642098
:103F4000256420427974657320446174610D0A0010
:103F500070B504460D4629462046FDF76EFB70BD40
:103F600010B534213F48FFF7F3FF10BD10B54FF4F3
:103F700099713D48FFF7ECFF10BD70B504460D4642
:103F80001646E0B200222946FDF7FFF937480570D2
:103F9000002070BD03461088012806DD33480078F4
:103FA000087001201080002070470120FCE770B5E8
:103FB00004460D461646012C02D0022C10D107E013
:103FC000E0B200222946FDF7E0F92948057007E034
:103FD000E0B200222946FDF7D8F92648057000BF57
:103FE00000BF002070BD03461088012811DD0120AC
:103FF0001080012B02D0022B08D103E01C4800786E
:10400000087003E01B480078087000BF00BF002064
:1040100070470120FCE708B5174800680090174A70
:1040200017491848FFF7EBFEAFF29703AFF2B5025E
:1040300040F2E9310020FFF7AFFCAFF25503AFF2D9
:10404000910202216846FFF7FBFC08BD10B5FFF79F
:10405000B6FE10BD70B504460D4629462046FFF752
:10406000E5FE70BD90490008C44900080D0100201C
:104070000E0100200F010020F84A00086D3F0008E3
:10408000613F0008513F00080FB41CB5074B06AA5A
:104090007B4469460090059800F007FA00206946C5
:1040A00000F016FA1CBC5DF814FB00003D04000093
:1040B00070B5044685690068C10601D5302600E068
:1040C0002026C00708D070BDD4E9012130469047B2
:1040D000206A00F1010020626D1EF5D570BD70B53B
:1040E000044685690078C00708D170BDD4E9012174
:1040F00020209047206A00F1010020626D1EF5D556
:1041000070BD00002DE9F0410646002410687529B5
:10411000314616A511D0AFF30080002803DAC0F1B4
:10412000000013A507E031688A0701D511A502E058
:10413000490704D510A5012401E0AFF30080002158
:104140000A2306F1240707E0B0FBF3F203FB120099
:10415000303078541046491C0028F5D123462A46B1
:104160003046BDE8F04100F03FB90000000000001B
:104170002D0000002B0000002000000070B5044658
:104180000D4621461068AFF300802188090502D54D
:10419000104A7A4402E00F4A7A440E32002104F1B8
:1041A000240307E000F00F064FEA1010965D5E54FE
:1041B00001F101010028F5D103462078000704D55C
:1041C000702D02D009B1113202232046BDE87040A3
:1041D00000F00AB9660900002DE9F05F894604463F
:1041E0004FF0000ADFF828B1FB44C0F820A02046B9
:1041F000E168884700287CD0252806D0D4E9012131
:104200009047206A401C2062F1E700255F46204667
:10421000E16888472028064608DB312E06D207EBE6
:10422000060010F8200C08B10543F0E7A80701D5F7
:1042300025F00405C4F81CA00027C4F818A02A2EF5
:1042400009D0304600F0D9F938B304EB8708303E86
:10425000C8F8186019E059F8041B204604EB8702DF
:104260009161E1688847012F064618D1E06900286E
:1042700020DA25F020051DE0D8F8180000EB8000BA
:1042800006EB40003038C8F818002046E16888473F
:10429000064600F0B2F90028EED1012F0AD02E2EEA
:1042A00008D12046E16888477F1C0646022F45F06A
:1042B0002005C4DBA069002803DA404245F001056F
:1042C000A061E80701D025F0100596B1A6F14100E4
:1042D000192802D8203645F400654A463146204662
:1042E00025604D46FBF73CFF60B1012807D0ED1D6E
:1042F00000E009E025F0070000F1080977E705F183
:10430000040974E7304679E7206ABDE8F09F0000B1
:1043100038090000032A40F2308010F0030C00F04E
:10432000158011F8013BBCF1020F624498BF11F8EF
:1043300001CB00F8013B38BF11F8013BA2F10402A8
:1043400098BF00F801CB38BF00F8013B11F0030320
:1043500000F0C380083AC0F0088051F8043B083AE6
:1043600051F804CBA0E80810F5E7121D5CBF51F826
:10437000043B40F8043BAFF30080D20724BF11F8A0
:10438000013B11F801CB48BF11F8012B24BF00F805
:10439000013B00F801CB48BF00F8012B70474FF0FC
:1043A00000020429C0F0128010F0030C00F0C98054
:1043B000CCF1040CBCF1020F18BF00F8012BA8BF10
:1043C00020F8022BA1EB0C0100F0BBB85FEAC17C26
:1043D00024BF00F8012B00F8012B48BF00F8012B87
:1043E00070477047704770472DE9F0470D46994672
:1043F0009246044600F124080168880604D5E06965
:1044000021F01001216000E00120A84202DDA0EBB4
:10441000050700E00027A16907EB050202EB090090
:10442000A1EB0000A0612078C00602D42046FFF76F
:104430003FFE002608E0D4E901211AF80600904763
:10444000206A401C761C20624E45F4DB2078C006B2
:104450000AD52046FFF72CFE06E0D4E901213020E2
:104460009047206A401C2062381EA7F10107F4DC47
:1044700007E0D4E9012118F805009047206A401CA4
:104480002062281EA5F10105F3DC2046FFF727FE78
:104490002078000602D50220BDE8F0870120FBE766
:1044A00001694A1C02610878704700B58FB0CDE9F8
:1044B00001310021059105497944CDE903101146E8
:1044C0006846FFF789FE0FB000BD0000E5FFFFFF63
:1044D0000A6802F8010B0A60704710B5203AC0F074
:1044E0000B80B1E81850203AA0E81850B1E81850F5
:1044F000A0E81850BFF4F5AF5FEA027C24BFB1E832
:104500001850A0E8185044BF18C918C0BDE81040A2
:104510005FEA827C24BF51F8043B40F8043B08BFAB
:104520007047D20728BF31F8023B48BF11F8012B72
:1045300028BF20F8023B48BF00F8012B70474FF01E
:10454000000200B5134694469646203922BFA0E8E3
:104550000C50A0E80C50B1F12001BFF4F7AF0907EF
:1045600028BFA0E80C5048BF0CC05DF804EB8900E0
:1045700028BF40F8042B08BF704748BF20F8022B23
:1045800011F0804F18BF00F8012B7047754600F0FE
:1045900029F8AE4605006946534620F007008546D7
:1045A00018B020B5FBF704FEBDE820404FF0000630
:1045B0004FF000074FF000084FF0000B21F007010B
:1045C000AC46ACE8C009ACE8C009ACE8C009ACE84E
:1045D000C0098D4670470446AFF300802046FBF7C4
:1045E000D4FD000000487047201000200149182029
:1045F000ABBEFEE726000200704730380A2801D221
:1046000001207047002070474FEA1153A3F58063E3
:10461000D3F11E03A8BFD3F1200C08DB4FF00042FA
:1046200042EAC12252EA505232FA03F0704709427C
:104630000BD4102BC4BF0020704703F5787CBCF16D
:10464000FF3F05D04FF0FF3070474FF0000070473C
:1046500070B500F0C3F800BF499224800020704775
:10466000F0E7B0FA80F310FA03F10AD0C3F11D03AA
:1046700003F580634FEA41504FEA035202EBD12128
:1046800070474FF000007047DFF848C170B51CEA72
:10469000111E1EBF1CEA13159EEA0C0F95EA0C0FA3
:1046A00000F06F8081EA030423EA4C134EEAD47EC3
:1046B00021EA4C1141F4801143F48013AE44A1FB74
:1046C000024CA0FB0365AEF17F7E361955EB0C055D
:1046D000A1FB034C4CF10003A0FB021C16EB0C06E3
:1046E000654153F10003094218BF46F0010613F477
:1046F000007F0BD14FEA03314FEA0530340341EA22
:10470000155140EA16506FF003020AE04FEAC32148
:104710004FEAC520F40241EA555140EA56506FF085
:10472000020202EB2E4201EB025585EACE710AD05D
:104730005FEA440C18BF24F0004450F1000041F13E
:10474000000120EAD47040F2FE7C624500D270BDC8
:10475000A84214BF4FF080444FF04044002E08BFE1
:104760000024BEF1806FA8BFA1F1C041BDE8704038
:1047700080F282804FF0000001F1C04101F0004161
:1047800070479EEA0C0F0CEA131518BF95EA0C0F40
:1047900006D04FF0000081EA030E0EF0004170BD1C
:1047A00000F01CF88900013E00F007B800F009B8DD
:1047B0004FEA430C5FEA5C5C08D081EA030100F039
:1047C0005BB84FEA410C5FEA5C5CF6D14FF0000049
:1047D000014970470000FF070000F87F0EF1020E4C
:1047E0002EF0030E5EF8046B364205D4012A43EB2B
:1047F000030515F5001F12D8012841EB010C1CF52B
:10480000001F0CD80ED14FEAD17C15F5001F0CEB20
:104810004C0C0CF1020C08BF4CEBD37C04E04FF0C5
:10482000080C01E04FEAD37C0CEB4C0526FA05F6A8
:1048300006F00706B6F1040C06D20EEB860CBDE8B6
:1048400070404CF0010C6047DFE80CF0090B0202ED
:104850004FF000414FF00000A1F5002170BD194656
:104860001046012851EB010418BFD4F5001484BF91
:10487000002001F0004170BD0808A0F500114FEACA
:104880003101704700000100020001000300010037
:104890000200010004000100020001000300010009
:1048A00002000100050001000200010003000100F8
:1048B00002000100040001000200010003000100E9
:1048C00002000100060001000200010003000100D7
:1048D00002000100040001000200010003000100C9
:1048E00002000100050001000200010003000100B8
:1048F00002000100040001000200010003000100A9
:104900000200010007000100020001000300010095
:104910000200010004000100020001000300010088
:104920000200010005000100020001000300010077
:104930000200010004000100020001000300010068
:104940000200010006000100020001000300010056
:104950000200010004000100020001000300010048
:104960000200010005000100020001000300010037
:104970000200010004000100020001000300010028
:1049800002000100A40F0020510600424200000076
:104990005134004243000100494E564D414300004E
:1049A0004D6F64697300000000000000000000000B
:1049B00000000000000000000000000000000000F7
:1049C00001422D2D51320142430003007B224E4112
:1049D0004D45223A22536D61727448656174657267
:1049E000222C224D4143223A225A4A553031222C60
:1049F0002254595045223A22444556222C224348FB
:104A0000494C44223A5B7B224E414D45223A224C8E
:104A100069676874222C2254595045223A22534522
:104A200054222C224348494C44223A5B7B224E417B
:104A30004D45223A22526561644C69676874222CA4
:104A40002254595045223A225445524D222C224498
:104A500045565F4944223A302C2244455654595019
:104A600045223A22535749544348227D2C7B224EFB
:104A7000414D45223A224465636F726174654C6909
:104A8000676874222C2254595045223A22544552C8
:104A90004D222C224445565F4944223A312C22446F
:104AA000455654595045223A2253574954434822B7
:104AB0007D5D7D2C7B224E414D45223A2243445060
:104AC0006C61796572222C2254595045223A225445
:104AD00045524D222C224445565F4944223A322CFD
:104AE0002244455654595045223A2253574954437B
:104AF00048227D5D7D00000001000200303132332C
:104B00003435363738394142434445464030580001
:104B10003031323334353637383961626364656633
:104B2000403078000400000800000000000000028F
:104B30000001000010000000584B00080000002099
:104B40001001000028010008684C00081001002036
:104B50007011000044010008000000000000000087
:104B600001020304010203040607080902040608FF
:104B70000000000000000000000000000000000035
:104B80000000000000000000000000000000000025
:104B90000000000000000000000000000000000015
:104BA0000000000000000000000000000000000005
:104BB00000000000000000000000000000000000F5
:104BC00000001000000000000000000000000000D5
:104BD00000000000000000000000000000000000D5
:104BE00000000000000000000000000000000000C5
:104BF00000000000000000000000000000000000B5
:104C000000000000000000000000000000000000A4
:104C10000000000000000000000000000000000094
:104C20000000000000000000000000000000000084
:104C30000000000000000000000000000000000074
:104C40000000000000000000000000000000000064
:104C50000000000000000000000000000000000054
:084C600000000000000000004C
:04000005080000ED02
:00000001FF
